:020000040000fa
:080000000002040000000000f2
:020000040000fa
:04000800840300006d
:020000040000fa
:04000c00cc02000022
:020000040000fa
:040010000e030000db
:020000040000fa
:04001400ec020000fa
:020000040000fa
:040018002e030000b3
:020000040000fa
:04001c008403000059
:020000040000fa
:040020008403000055
:020000040000fa
:040024008403000051
:020000040000fa
:04002800840300004d
:020000040000fa
:04002c008403000049
:020000040000fa
:040030008403000045
:020000040000fa
:040034004e03000077
:020000040000fa
:04003800840300003d
:020000040000fa
:04003c008403000039
:020000040000fa
:040040008403000035
:020000040000fa
:040044008403000031
:020000040000fa
:04004800840300002d
:020000040000fa
:04004c008403000029
:020000040000fa
:040050008403000025
:020000040000fa
:040054008403000021
:020000040000fa
:04005800840300001d
:020000040000fa
:04005c008403000019
:020000040000fa
:040060008403000015
:020000040000fa
:040064008403000011
:020000040000fa
:04006800840300000d
:020000040000fa
:04006c008403000009
:020000040000fa
:040070008403000005
:020000040000fa
:040074008403000001
:020000040000fa
:0400780084030000fd
:020000040000fa
:04007c0084030000f9
:020000040000fa
:0400800084030000f5
:020000040000fa
:0400840084030000f1
:020000040000fa
:0400880084030000ed
:020000040000fa
:04008c0084030000e9
:020000040000fa
:0400900084030000e5
:020000040000fa
:0400940084030000e1
:020000040000fa
:0400980084030000dd
:020000040000fa
:04009c0084030000d9
:020000040000fa
:0400a00084030000d5
:020000040000fa
:0400a40084030000d1
:020000040000fa
:0400a80084030000cd
:020000040000fa
:0400ac0084030000c9
:020000040000fa
:0400b00084030000c5
:020000040000fa
:0400b40084030000c1
:020000040000fa
:0400b80084030000bd
:020000040000fa
:0400bc0084030000b9
:020000040000fa
:0400c00084030000b5
:020000040000fa
:0400c40084030000b1
:020000040000fa
:0400c80084030000ad
:020000040000fa
:0400cc0084030000a9
:020000040000fa
:0400d00084030000a5
:020000040000fa
:0400d40084030000a1
:020000040000fa
:0400d800840300009d
:020000040000fa
:0400dc008403000099
:020000040000fa
:0400e0008403000095
:020000040000fa
:0400e4008403000091
:020000040000fa
:0400e800840300008d
:020000040000fa
:0400ec008403000089
:020000040000fa
:0400f0008403000085
:020000040000fa
:0400f4008403000081
:020000040000fa
:0400f800840300007d
:020000040000fa
:0400fc008403000079
:020000040000fa
:040100008403000074
:020000040000fa
:040104008403000070
:020000040000fa
:04010800840300006c
:020000040000fa
:04010c008403000068
:020000040000fa
:040110008403000064
:020000040000fa
:040114008403000060
:020000040000fa
:04011800840300005c
:020000040000fa
:04011c008403000058
:020000040000fa
:040120008403000054
:020000040000fa
:040124008403000050
:020000040000fa
:04012800840300004c
:020000040000fa
:04012c008403000048
:020000040000fa
:040130008403000044
:020000040000fa
:040134008403000040
:020000040000fa
:04020800840300006b
:020000040000fa
:04020c00cc02000020
:020000040000fa
:040210000e030000d9
:020000040000fa
:04021400ec020000f8
:020000040000fa
:040218002e030000b1
:020000040000fa
:04021c008403000057
:020000040000fa
:040220008403000053
:020000040000fa
:04022400840300004f
:020000040000fa
:04022800840300004b
:020000040000fa
:04022c008403000047
:020000040000fa
:040230008403000043
:020000040000fa
:040234004e03000075
:020000040000fa
:04023800840300003b
:020000040000fa
:04023c008403000037
:020000040000fa
:040240008403000033
:020000040000fa
:04024400840300002f
:020000040000fa
:04024800840300002b
:020000040000fa
:04024c008403000027
:020000040000fa
:040250008403000023
:020000040000fa
:04025400840300001f
:020000040000fa
:04025800840300001b
:020000040000fa
:04025c008403000017
:020000040000fa
:040260008403000013
:020000040000fa
:04026400840300000f
:020000040000fa
:04026800840300000b
:020000040000fa
:04026c008403000007
:020000040000fa
:040270008403000003
:020000040000fa
:0402740084030000ff
:020000040000fa
:0402780084030000fb
:020000040000fa
:04027c0084030000f7
:020000040000fa
:0402800084030000f3
:020000040000fa
:0402840084030000ef
:020000040000fa
:0402880084030000eb
:020000040000fa
:04028c0084030000e7
:020000040000fa
:0402900084030000e3
:020000040000fa
:0402940084030000df
:020000040000fa
:0402980084030000db
:020000040000fa
:04029c0084030000d7
:020000040000fa
:0402a00084030000d3
:020000040000fa
:0402a40084030000cf
:020000040000fa
:0402a80084030000cb
:020000040000fa
:0402ac0084030000c7
:020000040000fa
:0402b00084030000c3
:020000040000fa
:0402b40084030000bf
:020000040000fa
:0402b80084030000bb
:020000040000fa
:0402bc0084030000b7
:020000040000fa
:0402c00084030000b3
:020000040000fa
:0402c40084030000af
:020000040000fa
:0402c80084030000ab
:020000040000fa
:0402cc0084030000a7
:020000040000fa
:0402d00084030000a3
:020000040000fa
:0402d400840300009f
:020000040000fa
:0402d800840300009b
:020000040000fa
:0402dc008403000097
:020000040000fa
:0402e0008403000093
:020000040000fa
:0402e400840300008f
:020000040000fa
:0402e800840300008b
:020000040000fa
:0402ec008403000087
:020000040000fa
:0402f0008403000083
:020000040000fa
:0402f400840300007f
:020000040000fa
:0402f800840300007b
:020000040000fa
:0402fc008403000077
:020000040000fa
:040300008403000072
:020000040000fa
:04030400840300006e
:020000040000fa
:04030800840300006a
:020000040000fa
:04030c008403000066
:020000040000fa
:040310008403000062
:020000040000fa
:04031400840300005e
:020000040000fa
:04031800840300005a
:020000040000fa
:04031c008403000056
:020000040000fa
:040320008403000052
:020000040000fa
:04032400840300004e
:020000040000fa
:04032800840300004a
:020000040000fa
:04032c008403000046
:020000040000fa
:040330008403000042
:020000040000fa
:04033400840300003e
:020000040000fa
:10040000af8220000e7f22000e0188000000000055
:10041000000020000000e000020032000001200087
:100420002002880014000700b90007000000e00067
:1004300003003a00604b200001002000020037005a
:100440000000200001002000810f70000100320038
:1004500014000700000020000000e000020032004d
:100460000000020000000000220502000000000061
:100470000040da000000fe004440a9000000200017
:100480000000e0000300320000002000a00188000e
:100490004440a800000006008a1f78008b1f7800e7
:1004a0000000060091018800800478000000eb0045
:1004b0001a003700e284440032a0b4009905ba0063
:1004c000e284440032a0b4009906ba00e2844400f9
:1004d00032a0b4000006eb00476fde00fd07b2005b
:1004e000636ce10003003a00ebff07000000eb0043
:1004f0000a003700606ce10004003a00005deb0088
:100500008b05e900fdff3e00040037006168e10053
:10051000010032000086eb000b00070019c7ba008b
:100520001905ba000e04e00003003a000a00e000da
:10053000e0ff3a0000000600fe07b2009e018800be
:100540008a047800f5ff3700395dba008b05e900b1
:100550000c003200295dba008b05e900080032006a
:100560000c00e00003003a00e284440032a0b40032
:10057000f5ff370019ddba008b05e900faff3a00f4
:100580008904e800e184440032a0b40000000600c1
:10059000e2030400000000003600f800809fbe0067
:1005a000829fbe00849fbe00869fbe000000fa00ae
:1005b0008020a9000000eb00fd0007000080fa0089
:1005c0004f03be004f02be004f01be004f00be00f1
:1005d0003600f900004006003600f800809fbe009b
:1005e000829fbe00849fbe00869fbe000000fa006e
:1005f000f60007008040a90010002000ec00070072
:100600000080fa004f03be004f02be004f01be0043
:100610004f00be003600f900004006003600f8002a
:10062000809fbe00829fbe00849fbe00869fbe004a
:100630000000fa008060a90020002000dc00070014
:100640000080fa004f03be004f02be004f01be0003
:100650004f00be003600f900004006003600f800ea
:10066000809fbe00829fbe00849fbe00869fbe000a
:100670000000fa008080a90030002000cc000700b4
:100680000080fa004f03be004f02be004f01be00c3
:100690004f00be003600f900004006003600f800aa
:1006a000809fbe00829fbe00849fbe00869fbe00ca
:1006b0000000fa00304080000000e000020032003c
:1006c000304080000000010090822000104078003f
:1006d0008040e8009082200001487800808220005d
:1006e00011c0b300014878008460a9000080fa00be
:1006f0004f03be004f02be004f01be004f00be00c0
:100700003600f900004006000040da000000fe005c
:0407100000000500e0
:020000040000fa
:100714000000fa000021ef0010a127001008880053
:100724000003280020088800304080000000e0001a
:1007340002003a00203e2000240007008460a90043
:100744009460a800808220008040eb00014878007b
:100754000080fa00000006000200fa00000f780092
:100764009e00780011088800808220008040eb0001
:10077400014878000080fa00000006000000fa003a
:10078400100880000080fa00000006000200fa0051
:10079400000f78009e007800010888008082200005
:1007a4008040eb00014878000080fa000000060059
:1007b4000000fa00000880000080fa000000060033
:1007c4000000fa000080fa00000006000200fa00af
:1007d400000f78009460a9009e00780031408800e2
:1007e4009460a8000080fa00000006000000fa00ef
:1007f400808220008040eb00014878009460a800cb
:1008040005e1a8000080fa00000006000000fa00dc
:1008140005e1a9009460a9000080fa000000060028
:100824000200fa0080822000104f78001e407800f9
:100834000004e00003003200808220008040eb00ce
:10084400014878001e4078000080fa00000006008d
:100854000000fa0090822000104078000080fb0025
:100864000080fa00000006000000fa0090822000d8
:100874008040eb00014878000080fa000000060088
:100884000000fa00c422ef00ca22ef00d022ef00d9
:10089400d622ef00dc22ef00e222ef00e822ef0094
:1008a400f06f2c00001688000080eb0030168800e2
:1008b400e0012700601688000080eb009016880095
:1008c400f03f2000c0168800f01f2300f0168800b7
:1008d400f03c2f00201788006820ef006a20ef000a
:1008e400c026ef00c626ef00cc26ef00d226ef008c
:1008f400d826ef00de26ef00e426ef00000c2000ef
:10090400601988000080fa00000006000000fa0068
:1009140000102300203a88004827ef007027ef00da
:100924007227ef007427ef003200200080072000b8
:10093400a10920003374200080497800814978009f
:10094400824978000001eb0060042000710520005a
:100954002374200080497800814978008249780016
:080964000080fa00000006000b
:020000040000fa
:10096c00080800002000000000000000040800003f
:10097c000200000002000000ffff00000008000061
:10098c000400000000000000280800000200000025
:10099c00000000000608000002000000000000003b
:0409ac000000000047
:020000040000fa
:1009b0000200fa00000f78009e00780021408800b5
:1009c0000000fe000080fa00000006000000fa00af
:1009d00080802000800778000082200000018800cd
:1009e0000080fa00000006000000fa0021058000e7
:1009f000f0ff28000080600000c0a00020058800f3
:100a00000080fa0000000600809fbe00ec805700c6
:100a100031007800004088001100780002e8b7003b
:100a20004f00be00000006000000fa0095ff07001e
:100a3000b7ff0700ecff070036ff07000080fa0051
:100a4000000006000000fa00f7ff0700c482a800bb
:040a5000ffff37006d
:020000040000fa
:020000040002f8
:04aff8009dfb0000bd
:020000040000fa
:020000040002f8
:04affc007f3f000093
:00000001FF
