:020000040000fa
:080000000002040000000000f2
:020000040000fa
:040008008806000066
:020000040000fa
:04000c007803000075
:020000040000fa
:04001000ba0300002f
:020000040000fa
:04001400980300004d
:020000040000fa
:04001800da03000007
:020000040000fa
:04001c008806000052
:020000040000fa
:04002000880600004e
:020000040000fa
:04002400880600004a
:020000040000fa
:040028008806000046
:020000040000fa
:04002c008806000042
:020000040000fa
:04003000880600003e
:020000040000fa
:04003400fa030000cb
:020000040000fa
:040038008806000036
:020000040000fa
:04003c008806000032
:020000040000fa
:04004000880600002e
:020000040000fa
:040044007a05000039
:020000040000fa
:04004800440500006b
:020000040000fa
:04004c008806000022
:020000040000fa
:04005000880600001e
:020000040000fa
:040054008c04000018
:020000040000fa
:040058003004000070
:020000040000fa
:04005c008806000012
:020000040000fa
:04006000880600000e
:020000040000fa
:04006400880600000a
:020000040000fa
:040068002605000069
:020000040000fa
:04006c000805000083
:020000040000fa
:0400700088060000fe
:020000040000fa
:0400740088060000fa
:020000040000fa
:0400780088060000f6
:020000040000fa
:04007c0088060000f2
:020000040000fa
:0400800088060000ee
:020000040000fa
:0400840088060000ea
:020000040000fa
:0400880088060000e6
:020000040000fa
:04008c0088060000e2
:020000040000fa
:0400900088060000de
:020000040000fa
:0400940088060000da
:020000040000fa
:0400980088060000d6
:020000040000fa
:04009c0088060000d2
:020000040000fa
:0400a0000c0600004a
:020000040000fa
:0400a400b0050000a3
:020000040000fa
:0400a80088060000c6
:020000040000fa
:0400ac0088060000c2
:020000040000fa
:0400b00088060000be
:020000040000fa
:0400b40088060000ba
:020000040000fa
:0400b80088060000b6
:020000040000fa
:0400bc0088060000b2
:020000040000fa
:0400c00088060000ae
:020000040000fa
:0400c40088060000aa
:020000040000fa
:0400c80088060000a6
:020000040000fa
:0400cc0088060000a2
:020000040000fa
:0400d000880600009e
:020000040000fa
:0400d400880600009a
:020000040000fa
:0400d8008806000096
:020000040000fa
:0400dc008806000092
:020000040000fa
:0400e000880600008e
:020000040000fa
:0400e400880600008a
:020000040000fa
:0400e8008806000086
:020000040000fa
:0400ec008806000082
:020000040000fa
:0400f000880600007e
:020000040000fa
:0400f400880600007a
:020000040000fa
:0400f8008806000076
:020000040000fa
:0400fc008806000072
:020000040000fa
:04010000880600006d
:020000040000fa
:040104008806000069
:020000040000fa
:040108008806000065
:020000040000fa
:04010c008806000061
:020000040000fa
:04011000880600005d
:020000040000fa
:040114008806000059
:020000040000fa
:040118008806000055
:020000040000fa
:04011c008806000051
:020000040000fa
:04012000880600004d
:020000040000fa
:040124008806000049
:020000040000fa
:040128008806000045
:020000040000fa
:04012c00f2040000d9
:020000040000fa
:040130007206000053
:020000040000fa
:040134008806000039
:020000040000fa
:040208008806000064
:020000040000fa
:04020c007803000073
:020000040000fa
:04021000ba0300002d
:020000040000fa
:04021400980300004b
:020000040000fa
:04021800da03000005
:020000040000fa
:04021c008806000050
:020000040000fa
:04022000880600004c
:020000040000fa
:040224008806000048
:020000040000fa
:040228008806000044
:020000040000fa
:04022c008806000040
:020000040000fa
:04023000880600003c
:020000040000fa
:04023400fa030000c9
:020000040000fa
:040238008806000034
:020000040000fa
:04023c008806000030
:020000040000fa
:04024000880600002c
:020000040000fa
:040244007a05000037
:020000040000fa
:040248004405000069
:020000040000fa
:04024c008806000020
:020000040000fa
:04025000880600001c
:020000040000fa
:040254008c04000016
:020000040000fa
:04025800300400006e
:020000040000fa
:04025c008806000010
:020000040000fa
:04026000880600000c
:020000040000fa
:040264008806000008
:020000040000fa
:040268002605000067
:020000040000fa
:04026c000805000081
:020000040000fa
:0402700088060000fc
:020000040000fa
:0402740088060000f8
:020000040000fa
:0402780088060000f4
:020000040000fa
:04027c0088060000f0
:020000040000fa
:0402800088060000ec
:020000040000fa
:0402840088060000e8
:020000040000fa
:0402880088060000e4
:020000040000fa
:04028c0088060000e0
:020000040000fa
:0402900088060000dc
:020000040000fa
:0402940088060000d8
:020000040000fa
:0402980088060000d4
:020000040000fa
:04029c0088060000d0
:020000040000fa
:0402a0000c06000048
:020000040000fa
:0402a400b0050000a1
:020000040000fa
:0402a80088060000c4
:020000040000fa
:0402ac0088060000c0
:020000040000fa
:0402b00088060000bc
:020000040000fa
:0402b40088060000b8
:020000040000fa
:0402b80088060000b4
:020000040000fa
:0402bc0088060000b0
:020000040000fa
:0402c00088060000ac
:020000040000fa
:0402c40088060000a8
:020000040000fa
:0402c80088060000a4
:020000040000fa
:0402cc0088060000a0
:020000040000fa
:0402d000880600009c
:020000040000fa
:0402d4008806000098
:020000040000fa
:0402d8008806000094
:020000040000fa
:0402dc008806000090
:020000040000fa
:0402e000880600008c
:020000040000fa
:0402e4008806000088
:020000040000fa
:0402e8008806000084
:020000040000fa
:0402ec008806000080
:020000040000fa
:0402f000880600007c
:020000040000fa
:0402f4008806000078
:020000040000fa
:0402f8008806000074
:020000040000fa
:0402fc008806000070
:020000040000fa
:04030000880600006b
:020000040000fa
:040304008806000067
:020000040000fa
:040308008806000063
:020000040000fa
:04030c00880600005f
:020000040000fa
:04031000880600005b
:020000040000fa
:040314008806000057
:020000040000fa
:040318008806000053
:020000040000fa
:04031c00880600004f
:020000040000fa
:04032000880600004b
:020000040000fa
:040324008806000047
:020000040000fa
:040328008806000043
:020000040000fa
:04032c00f2040000d7
:020000040000fa
:040330007206000051
:020000040000fa
:040334008806000037
:020000040000fa
:100400004f9520000e7f22000e01880000000000a2
:10041000000020000000e000020032000001200087
:100420002002880014000700860207000000e00098
:1004300003003a00a0232200010020000200370040
:100440000000200001002000810f70000100320038
:1004500014000700000020000000e000020032004d
:100460000000020000000000761002000000000002
:100470000040da000000fe004440a900a006200071
:100480000000e0000300320000002000a00188000e
:100490004440a800000006008a1f78008b1f7800e7
:1004a0000000060091018800800478000000eb0045
:1004b0001a003700e284440032a0b4009905ba0063
:1004c000e284440032a0b4009906ba00e2844400f9
:1004d00032a0b4000006eb00476fde00fd07b2005b
:1004e000636ce10003003a00ebff07000000eb0043
:1004f0000a003700606ce10004003a00005deb0088
:100500008b05e900fdff3e00040037006168e10053
:10051000010032000086eb000b00070019c7ba008b
:100520001905ba000e04e00003003a000a00e000da
:10053000e0ff3a0000000600fe07b2009e018800be
:100540008a047800f5ff3700395dba008b05e900b1
:100550000c003200295dba008b05e900080032006a
:100560000c00e00003003a00e284440032a0b40032
:10057000f5ff370019ddba008b05e900faff3a00f4
:100580008904e800e184440032a0b40000000600c1
:100590009c18040000000000c818040000000000bf
:1005a0000819040000000000f21804000000000018
:1005b00060180400000000007e1804000000000025
:1005c0003c190400000000002c180400000000008a
:1005d0004820040000000000402904000000000042
:1005e000be200400000000002621040000000000de
:1005f0007421040000000000be210400000000007f
:10060000cc17040000000000d61704000000000012
:10061000c4170400000000009c1704000000000044
:100620002a16040000000000641604000000000008
:100630008016040000000000e61604000000000020
:1006400032170400000000009616040000000000ad
:1006500070170400000000003c16040000000000b9
:1006600046160400000000005016040000000000c0
:100670005a16040000000000a61604000000000046
:10068000b016040000000000ba16040000000000cc
:100690001616040000000000c4160400000000004c
:1006a0000811040000000000781804000000000099
:1006b0008c13040000000000dc13040000000000a4
:1006c000f413040000000000861b0400000000007a
:1006d000b413040000000000de0c04000000000061
:1006e000a808040000000000040804000000000046
:1006f0003600f800809fbe00829fbe00849fbe002f
:10070000869fbe000000fa008020a9000000eb00d8
:10071000f31207000080fa004f03be004f02be0034
:100720004f01be004f00be003600f9000040060039
:100730003600f800809fbe00829fbe00849fbe00ee
:10074000869fbe000000fa00ec1207008040a9005e
:1007500010002000e21207000080fa004f03be00e4
:100760004f02be004f01be004f00be003600f90030
:10077000004006003600f800809fbe00829fbe0049
:10078000849fbe00869fbe000000fa008060a90022
:1007900020002000d21207000080fa004f03be00a4
:1007a0004f02be004f01be004f00be003600f900f0
:1007b000004006003600f800809fbe00829fbe0009
:1007c000849fbe00869fbe000000fa008080a900c2
:1007d00030002000c21207000080fa004f03be0064
:1007e0004f02be004f01be004f00be003600f900b0
:1007f000004006003600f800809fbe00829fbe00c9
:10080000849fbe00869fbe000000fa002042800048
:100810000000e000020032002042800000000100e1
:1008200090942000104078008040e80090942000d0
:10083000014878008094200011c0b300014878007e
:100840008460a9000080fa004f03be004f02be0082
:100850004f01be004f00be003600f9000040060008
:100860003600f800809fbe00829fbe00849fbe00bd
:10087000869fbe000000fa00f040800000000100ea
:10088000d1408000c0408000808f500002003a00bc
:100890009580a900190037008580a9001000370055
:1008a000d0408000904078008180fb0021118800ba
:1008b0000000e800d0408800d1408000d0912000a6
:1008c000808f500002003a0040912000d040880004
:1008d000d1408000c0408000808f50000600320070
:1008e0001111800000202000008060000000e00066
:1008f000ebff320001003700000000000080fa002a
:100900004f03be004f02be004f01be004f00be00ad
:100910003600f900004006003600f800809fbe0057
:10092000829fbe00849fbe00869fbe000000fa002a
:100930008560a9001e003700a040800031118000b2
:100940008140780001487800a1408000509220004a
:10095000808f500009003200a04080008000e80035
:10096000b0408000808f500004003200a040800022
:100970000000e800a04088000d003700a140800082
:1009800050922000808f500007003a00b140800054
:10099000d0912000808f500003003200d0912000c1
:1009a000a04088000200370010c0b3001ce8b70068
:1009b00010118000610060000000e000deff3a00de
:1009c00000418000000001000080fa004f03be00db
:1009d0004f02be004f01be004f00be003600f900be
:1009e00000400600801f78000000fa00101180000f
:1009f000620060000000e000010032002222a90035
:100a00008c20a9000080fa004f007800004006000a
:100a10003600f800809fbe00829fbe00849fbe000b
:100a2000869fbe000000fa00904180000000010097
:100a30000080fa004f03be004f02be004f01be000f
:100a40004f00be003600f900004006003600f800f6
:100a5000809fbe00829fbe00849fbe00869fbe0016
:100a60000000fa00a0418000000001000080fa00b0
:100a70004f03be004f02be004f01be004f00be003c
:100a80003600f900004006003600f800809fbe00e6
:100a9000829fbe00849fbe00869fbe000000fa00b9
:100aa000304280000000e00002003200304280004e
:100ab00000000100b0942000104078008040e80061
:100ac000b094200001487800a094200011c0b30029
:100ad000014878008500a9000080fa004f03be009d
:100ae0004f02be004f01be004f00be003600f900ad
:100af000004006003600f800809fbe00829fbe00c6
:100b0000849fbe00869fbe000000fa006042800005
:100b10000000e0000200320060428000000001009e
:100b2000d0942000104078008040e800d09420004d
:100b300001487800c094200011c0b300014878003b
:100b400084e0a9000080fa004f03be004f02be00ff
:100b50004f01be004f00be003600f9000040060005
:100b60003600f800809fbe00829fbe00849fbe00ba
:100b7000869fbe000000fa00604180000000010076
:100b80004141800030418000808f500002003a00d7
:100b900097e0a9001900370087e0a900100037008e
:100ba00040418000904078008180fb00a1118800c6
:100bb0000000e8004041880041418000f0922000a0
:100bc000808f500002003a0060922000404188006f
:100bd0004141800030418000808f5000060032008b
:100be0009111800000202000008060000000e000e3
:100bf000ebff320001003700000000000080fa0027
:100c00004f03be004f02be004f01be004f00be00aa
:100c10003600f900004006003600f800809fbe0054
:100c2000829fbe00849fbe00869fbe000000fa0027
:100c300087c0a9001e00370010418000b11180005c
:100c400081407800014878001141800070932000b5
:100c5000808f500009003200104180008000e800c1
:100c600020418000808f500004003200104180003d
:100c70000000e800104188000d003700114180009d
:100c800070932000808f500007003a0021418000bf
:100c9000f0922000808f500003003200f09220007c
:100ca000104188000200370010c0b3002ae8b700e6
:100cb00090118000610060000000e000deff3a005b
:100cc00070418000000001000080fa004f03be0068
:100cd0004f02be004f01be004f00be003600f900bb
:100ce00000400600801f78000000fa00901180008c
:100cf000620060000000e000010032003222a90022
:100d00008c40a9000080fa004f00780000400600e7
:100d10000040da000000fe000a00fa001100200086
:100d2000b1bf9f00c0bf9f006a8057007c040700ce
:100d30004fb897000080fa00000006000a00fa0091
:100d4000e20f500034003e00904a8000e10f500056
:100d500003003200e20f500011003a000c0037008f
:100d6000032220000300e00001003a000040da0006
:100d70002002e200020035002822ef0021e2a80054
:100d80002342ab000d003a002342a8000b003700bd
:100d9000032320000300e00001003a000040da00d5
:100da0003002e200020035003822ef0031e2a800f4
:100db0003342ab0001003a003342a80082017800c0
:100dc0000b0037003102fb00e10f500004003a0035
:100dd0002322ab00feff3a002411880003003700f5
:100de0003322ab00feff3a00a41188008301e90022
:100df0000300e000f3ff3a00e10f500003003a0067
:100e00002302ab00feff32000b0037003302ab00c1
:100e1000feff32000800370033002000b3bf9f0000
:100e2000c0bf9f00d1bf9f00e2bf9f006a805700f4
:100e30003d0407006fb99700020078000080fa00b7
:100e400000000600000005000000fa00688157005d
:100e5000cfb8970070428000100078009b00070018
:100e60000080fa00000006006e003700889fbe0078
:100e70008a9fbe00800478000200e0005b00320020
:100e800001407800814c780082814400f1f99f0094
:100e9000e20f51005500360091449800a14498009b
:100ea000e1f99f00d1f99f00e60f51004f00360095
:100eb000b1449800c1f99f00e80f51004b00360083
:100ec0000905ea00630565000a8444000a0551002b
:100ed000c1ff2f00010565000080fb008000eb00d2
:100ee000121020001310200045040700008cbe00e3
:100ef0000a01440060b99f0071b99f00e80f5500d6
:100f00003a0036002004980031049800400498000c
:100f10005104980020b99f0031b99f0040b99f004b
:100f200051b99f00f80f550030003600600498005a
:100f300071049800000c9800110c9800200c980087
:100f4000310c9800400c9800510c980020b19f0083
:100f500031b19f0040b19f0051b19f0060b19f002f
:100f600071b19f0000b99f0011b99f006401640036
:100f70007801410002044400020555006011b800e8
:100f80000203be000002be000403be006022b800df
:100f9000000072008180720002017300838173007f
:100fa00010003700009cbe000294be004004980070
:100fb000510498006204980073049800000c980093
:100fc000110c9800220c9800330c9800400c9800eb
:100fd000510c9800620c9800730c98000a02b10042
:100fe0000802b000ff0f5500eeff3e000900780038
:100ff0004f05be004f04be00000006007142800095
:1010000091007800ed0237000000060040852000c6
:1010100000000600fdff0700904288008042880023
:1010200000000600ea874700889fbe008a9fbe0036
:101030008e1f780000047800030078007287570044
:1010400084e2260055c72600049fbe00c3962200f6
:10105000030f78006c875700004feb0011059000dc
:10106000a1049000910578000200e0000200320027
:101070000207780001003700728757000000e00087
:1010800002003a000e007800cd0207000a00e000de
:10109000030035008a0f5000010036000a00780076
:1010a0000b02780089017800000178008e0078003a
:1010b00008007800430007004f0778004f05be0086
:1010c0004f04be00af00b100000006000200fa00ad
:1010d000881f780000047800e2bf9f0064815700f9
:1010e00008007800f6010700980090000148a3006e
:1010f000010032000080eb004f0478000080fa000d
:1011000000000600889fbe000004780048009000a0
:1011100082047800808f540001003600800478003b
:1011200009017800580090008602070058009000de
:101130000900400050049800c800900089845000c5
:10114000490498000048eb004f04be000000060070
:1011500010007800f9fe3700900190000388a3008a
:1011600001003200e7ff37000348a30001003a0006
:10117000f7ff070000000600889fbe00000478000b
:101180004800900082047800808f540001003600ef
:101190008004780009017800580090006902070077
:1011a000580090000900400050049800c8009000ca
:1011b00089845000490498000048eb004f04be00a9
:1011c00000000600f2874700889fbe008a9fbe008d
:1011d0008c9fbe008e1f7800800478000105780087
:1011e00002047800830578006107620002003a007b
:1011f0008b0f540008003900080178008a0078003d
:1012000009007800d4ff07008b0f5400020039005a
:10121000880578001e003700088655000c0178000c
:10122000f00f5600010036000201200001022000ec
:101230007e8057000dff07008c0678000500370000
:1012400002012000fe80570009007800c2ff07005d
:10125000f0865600ef8f5600f9ff3e004461de0035
:1012600000ff2f000091b90002014600fe805700e8
:1012700009007800b8ff07000e00e00004003a0003
:10128000080178008a00780009007800b2ff0700a2
:101290000b0078004f0778004f06be004f05be00d8
:1012a0004f04be002f01b100000006000000050041
:1012b0000000050000000500000178000040eb0080
:1012c0008080fb0081804000e38f200063c27800b3
:1012d0000404e00003003a00f08f200060c07800b2
:1012e0000000060092017800934f520004003a007b
:1012f000f08f200060c078000309e800010037008b
:101300000040e800ea4f5000edff36000000060004
:10131000f6874700889fbe008a9fbe008c9fbe0054
:101320008e1f78000005780001047800830578009e
:10133000040678000000eb00c0b79f008080eb003f
:10134000d1b79f00e0b79f00f2b79f0000082000d0
:1013500080bf9f0098007800010078008004eb00b7
:10136000010037008904e800304178000204e00001
:101370000300320053c2b300834f5100f9ff3a001b
:101380000900e00004003200090178000a0078003a
:1013900071ff0700188c44001807780050c2b30092
:1013a0009e4f10003f013a000e07e8000e0c780037
:1013b00010003700cfb097000100a0000b003700ed
:1013c000cfb097000110a00008003700cfb0970001
:1013d0000120a00005003700cfb097000130a00029
:1013e00002003700cfb097000140a000c1b79f00b6
:1013f000000ce8001800780090407800b2c2b300fa
:1014000082cf5000f1ff320007003c0002c2b3005f
:1014100082cf5000f0ff320032c2b30082cf5000c2
:1014200007003a00efff3700d2c2b30082cf50006e
:10143000e0ff320002c3b30082cf5000e0ff320071
:10144000a2c2b30082cf50000d003a00000ce800a9
:101450001c80e900000e780010007800e0b79f00c3
:101460000000e0000f003d00cfb097000100a20097
:10147000c1b79f000000ea00e0b79f0009003700f5
:1014800084010700e0b79f0001003700000ce8006e
:10149000180078009000fb000103b100e98f5000b4
:1014a000faff36004fb097000008a3000200320098
:1014b0000010a100c0b79f0018007800e1c2b3007f
:1014c00090cf100016003a008000eb00d1b79f00cb
:1014d0000000e800000c7800a1c2b30090cf10001b
:1014e00006003a00000ce8001c80e900000e7800bd
:1014f00010007800d0b79f00090037006501070091
:10150000d0b79f0001003700000ce80018007800f9
:101510009000fb000103b100e98f5000faff360094
:101520000800780064ff0700804678001800780003
:101530001000fb00c401070091062000810f50003d
:101540003800320012003c0041062000810f50009c
:10155000340032000a003c0011062000810f5000c8
:101560002000320031062000810f5000a000320020
:1015700051022000810f5000bc003a00b400370037
:1015800071062000810f5000b8003c008800370031
:1015900001072000810f50005c00320007003c0072
:1015a000e1062000810f50007a003200f106200091
:1015b000810f5000ad003a0039003700510720007c
:1015c000810f50002700320081072000810f50005a
:1015d0004200320031072000810f5000a3003a0082
:1015e0008f0037008d80fb000c01780000fe2f007b
:1015f0000f0040009f0107000000e000a80032003b
:1016000018007800000ce8009041780002fe2f00de
:101610000f014100f88057000a00780024ff0700fe
:101620000e0037008d80fb008c0178001200200036
:1016300000fe2f000f004000ad0107000000e00099
:1016400097003200180ce80002fe2f000f01410045
:10165000f88057000a00780014ff070080844400d7
:10166000900037008d80fb008c0178000001eb00ba
:1016700000fe2f000f0040009d0107000000e00069
:1016800087003200180ce80002fe2f000f01410015
:10169000f88057000a00780004ff0700efff3700ca
:1016a0008d80fb008c0178000001eb0000fe2f0014
:1016b0000f0040008e0107000000e00078003200bb
:1016c000180ce80002fe2f000f014100f8805700bf
:1016d0000a007800f5fe0700e0ff37008d80fb0070
:1016e0008c0178000001eb0000fe2f000f0040008d
:1016f0007f0107000000e000690032001800780058
:10170000000ce800904178001c0037008c01780044
:101710000001eb00010f200000fe2f000f00400031
:10172000730107000000e0005d003200180ce800c3
:101730000fb097009fb097002fb19700bfb19700ef
:10174000e00f5000e08f5800e00f5900e08f590083
:1017500009003a00cfb597006fb49700608f200062
:10176000170107000b02780088017800000178005b
:10177000618f20004700370083c7b30002fe2f00af
:101780000f014100f88057000a007800c8fe0700ea
:10179000b2ff37000b8144008d80fb008c01780084
:1017a00000fe2f000f004000a50107003c0037009d
:1017b0008d80fb000c01780000fe2f000f00400020
:1017c0002c0107000000e00035003200180078000e
:1017d000000ce8009041780002fe2f000f0141004c
:1017e000f88057000a007800b1fe07009bff370021
:1017f00000c8b30080cf560029003a00180ce8005a
:101800001c80e900000e780010407800e0df9f00a7
:1018100013002000e2fd2f000f01410008003700f7
:1018200000c8b30080cf56001d003a00180ce80035
:101830001c80e900000e78008001eb0010017800a8
:10184000f88057000a007800f6fd070083ff370094
:1018500000c8b30080cf560011003a00180ce80011
:101860004fb29700efb19700080037000e0c7800d8
:101870000000eb00c0b79f00e0b79f000080eb00c6
:10188000d0b79f000002eb00840178001200200016
:10189000c18f20000a0078004afe07006fff370062
:1018a000180ce800090078004f0778004f06be00ca
:1018b0004f05be004f04be006f01b10000000600de
:1018c0008200fa00889fbe008a1f78000005780019
:1018d00082047800c13f9f000004eb001000370035
:1018e0000902780088017800a2f72f000f0141005b
:1018f00081f72f008f8040000a00780084fe0700e7
:1019000008004000880f500004003d00b004200093
:10191000804a88000084eb0004003700000478004f
:101920004f3897001004e000edff3a0008007800ff
:101930004f0578004f04be000080fa00000006004a
:10194000889fbe000004be000000eb000800e0001d
:1019500018003200180090000058a3000d0032005b
:10196000d800900068009000808f50000900360079
:10197000b80990000001eb008200780008007800b0
:1019800003000100d80090000080eb000100e0009f
:10199000080032000000eb00200c98006004980062
:1019a000500498000900e00002003200180078009e
:1019b000d9fc07004f04be0000000600889fbe004f
:1019c0000004be000000eb000800e000250032002b
:1019d000180090000058a30011003200d8009000b9
:1019e00068009000808f500009003600b809900010
:1019f0000001eb008200780008007800030001007d
:101a0000d80090000080eb000100e00015003200db
:101a10000000eb00200c980060049800500498002f
:101a2000780a900008109000800f520006003100e4
:101a30000002520011002000cfa2de00612bb9008d
:101a400018007800390007000000eb00001498002f
:101a5000700c98000900e0000200320018007800c5
:101a6000adfc07004f04be000000060080007800b7
:101a70001000200002022000828f5000040032007b
:101a8000e9805000e48f5000010036000000eb00b8
:101a900000000600889fbe008a1f780000057800bd
:101aa0000a047800984478000805e8000900fb0063
:101ab000eeff07000000e000f9ff3a00b0c2b300fb
:101ac00080cf540005003200d0c2b3008000eb008c
:101ad00080cf540005003a00020037008000eb0080
:101ae00001003700110020000804e8000000eb00ae
:101af000030037006a02b900020052000003b00080
:101b00003801fb0003fd2f0082814100e98f510065
:101b1000f8ff36000100e00001003a000000ea0092
:101b20004f0578004f04be0000000600a0fd2f0006
:101b3000f1ff2f003a0007004f89de008201780094
:101b4000000006008001780002003700b1597800db
:101b50000201e9000200e000fcff3a00000006007c
:101b60000200fa0081017800e0ff9f0093009000de
:101b70000188a30005003200d3009000805878004f
:101b80000080fb00d10198000a00370012002000fd
:101b90008f80e900030078006dfd07008000780069
:101ba0000080eb000100e00002003200eff8970037
:101bb0000180fb000080fa0000000600e8ff37000b
:101bc00080007800040037003104e00002003a0091
:101bd0000000510000000600010178000108a30088
:101be000f9ff3a008101780031017800f4ef2f000d
:101bf000020242000281ea00020162000408280099
:101c000004016100f7ff32008300780001017800d1
:101c10003104e000fdff3a00000051000000060022
:101c200002002f00f3ff2f00820f5000838f580017
:101c3000040036000000ea00804a88000080eb00c3
:101c40008080eb0000000600f1fb2f008080400048
:101c5000f98f500001003e000050a0000000060077
:101c6000f9ff370000000600eafc0700fdff07004f
:101c7000fcff3700881f780000047800000820006f
:101c8000808f50001700350010082000808f500012
:101c90000b00340030082000808f500011003a0003
:101ca0009200780068805000000978003002be0081
:101cb0002003be00049cbe000694be00070037004f
:101cc0009202780064805200000978001000be0083
:101cd00097000700009cbe000294be001000200088
:101ce000010037000000eb004f0478000000060000
:101cf00084082000848f50001d0032000d003c003d
:101d000014082000848f50002700320002003c009d
:101d1000040820000400370024082000848f5000ad
:101d20003400320044082000848f500043003a0001
:101d300036003700040a2000848f5000270032004c
:101d400004003c0004092000848f50003b003a004e
:101d500028003700020c2000828f50002f00320034
:101d6000020f2000828f500034003a002b00370011
:101d70009380e9000200e00005003200810978004c
:101d80001102fb00cfa2de00612bb9002800370052
:101d900081097800114278000482fb008002eb0088
:101da0006033b8002200370013027800e4005200cc
:101db0000200e00005003200810978001102be0037
:101dc0004fabde00860378001900370081097800e8
:101dd0001102be006033b800150037009380e9009f
:101de0008109780011027800cfa2de00612bb900d2
:101df0000f00370093027800e880520081097800d4
:101e00003102be002103be00090037009380e900c3
:101e10000200e00002003200f1ff37009380e90089
:101e200081097800110278008002eb006033b8006d
:101e30000498be000690be001000050000000500da
:101e400044082000848f50002500320008003c0028
:101e500014082000848f5000140032002408200051
:101e6000848f500024003200040820000c0037004a
:101e700004092000848f50001f00320004003c0041
:101e800084082000848f500024003a000e003700a0
:101e9000040a2000848f500011003200040c20003e
:101ea000848f50001d003a000d0037009380e90038
:101eb000810978009100780001087800cf91de0058
:101ec0008288be00140037009380e9008109780001
:101ed0009100780001087800824878000e003700f1
:101ee0009380e9008109780091007800010878006a
:101ef00082087800080037009380e90081097800a3
:101f000091007800010878006112b900612bb900d6
:101f10008498be008690be001000050000000500f9
:101f200000c0da000000060000c0da000000060071
:101f3000810378001d0007000001be006000b800aa
:101f40000478a30013003a006220e10015003e006f
:101f50000d0039008301d1000281d3008180d300bc
:101f60008301d1000281d3008180d3008301d1009d
:101f70000281d3008180d3000538b000c42add007f
:101f8000f300b2008381720007f0a70003f0a00005
:101f90000000060083ff2700020020006110b90046
:101fa000f9ff370003ff2700f7ff3700c70ade00fd
:101fb000f107b200f50fb20008003200e1cf420095
:101fc000020032000170a00024000500810f7000a3
:101fd000010032000408050044000500810f700074
:101fe00002003a00140005008502e90000004000ec
:101ff00081c04800fcff3b000170a00024000500e8
:10200000020ab900001bb9000200b80081004200ba
:082010008100430000000600fe
:020000040000fa
:1020180054720000616e0000736d00006974000066
:102028002074000065730000740a0000005200006c
:102038006563000065690000766500002074000093
:1020480065730000743a00002054000079700000a5
:1020580065200000612000006d65000073730000ba
:10206800616700006520000074680000656e00006c
:102078002070000072650000737300002065000086
:102088006e74000065720000202800006d61000079
:1020980078200000313600002063000068610000ed
:1020a80072730000293a0000005900006f750000a3
:1020b8002074000079700000656400003a20000078
:1020c800000000009c180000c81800000819000053
:1020d800f2180000601800007e1800003c1900008b
:0420e8002c180000b0
:020000040000fa
:1020ec000000fa006d0c0700b0418000ce0907001b
:1020fc00d60907000000d1009d0a0700dc22a900c8
:10210c00dc02a800c0418000220a07002a0a07004e
:10211c000000d100450b0700d642a900d622a8002a
:10212c0000fd2f00cc01070001003700000000006b
:10213c00304080000000e00005003a005040800074
:10214c00e10f500002003a000a28ef001c00370093
:10215c00304080000000e00008003a004040800061
:10216c00e10f500005003a00ce0107000828ef00ef
:10217c0010002000304088001100370030408000f3
:10218c00e10f500007003a0050408000e10f500072
:10219c0004003a00cb0107000a28ef000628ef00e4
:1021ac000700370030408000e10f500004003a0077
:1021bc0040408000e10f500001003a000828ef0079
:1021cc0012c8bf000004e000d8ff320020168000c7
:1021dc004a00de00614060000004a2006140600023
:1021ec000080fb00610060004a00dd0021168000c9
:1021fc0001a0a10001007000201688001268ef00f9
:10220c00cbff37000200fa00704080008140800054
:10221c0061004000e08048007040880081408800e8
:10222c007240800083408000f0702200010020008a
:10223c00800f5100818f59000400360010c0b3008c
:10224c0012e8b7000e28ef001028ef0010c5b300fd
:10225c00cc030700e0022000000f7800c482a80025
:10226c00c4a2a900c4c2a90040062000920b07001a
:10227c0010168000610060000000e00003003200d6
:10228c0010002000000f780014003700101680009a
:10229c00620060000000e0000300320040002000fb
:1022ac00000f78000d0037001016800064006000ed
:1022bc000000e0000300320070002000000f7800e6
:1022cc000600370010168000680060000000e00077
:1022dc0002003200a0002000000f7800c482a90088
:1022ec00c4a2a800c4c2a90040062000720b0700bb
:1022fc0010168000610060000000e0000300320056
:10230c0020002000000f7800140037001016800009
:10231c00620060000000e00003003200500020006a
:10232c00000f78000d00370010168000640060006c
:10233c000000e0000300320080002000000f780055
:10234c000600370010168000680060000000e000f6
:10235c00020032000000eb00000f7800c482a900dc
:10236c00c4a2a900c4c2a80040062000520b07005a
:10237c0010168000610060000000e00003003200d5
:10238c0030002000000f7800140037001016800079
:10239c00620060000000e0000300320060002000da
:1023ac00000f78000d0037001016800064006000ec
:1023bc000000e0000300320090002000000f7800c5
:1023cc000600370010168000680060000000e00076
:1023dc0002003200b0002000000f7800c482a90077
:1023ec00c4a2a900c4c2a900e00220009e0078008b
:1023fc00808f5000c20032001e007800eb0f50009e
:10240c0006003a000c68ef0010c0b3003ae8b700c1
:10241c0060c7b300e2040700ba0037001e00780062
:10242c00ea0f500005003a001000200040408800e0
:10243c0060c7b300da040700b20037000cc8bf0055
:10244c000004e00012003a001e007800e90f500072
:10245c000f003a0010c0b3000ce8b7005016800013
:10246c004600de00614060000004a2006140600094
:10247c000080fb00610060004600dd00511680000a
:10248c000160a10001007000501688009800370010
:10249c000cc8bf000004e00013003a001e007800d6
:1024ac00e90f50001000320010c0b3000ce8b70068
:1024bc003a68ef00501680004600de006140600074
:1024cc000004a200614060000080fb00610060001d
:1024dc004600dd00511680000160a1000100700073
:1024ec0050168800820037000cc8bf00e14f500026
:1024fc0015003a001e007800e90f500012003a0057
:10250c0020c0b3000ce8b7003ac8bf0061406000bf
:10251c003ae8b700501680004600de0061406000cb
:10252c000004a200614060000080fb0061006000bc
:10253c004600dd00511680000160a1000100700012
:10254c00501688006a0037000cc8bf00e14f5000dd
:10255c0013003a001e007800e90f50001000320002
:10256c0020c0b3000ce8b7003a68ef0050168000aa
:10257c004600de00614060000004a2006140600083
:10258c000080fb00610060004600dd0051168000f9
:10259c000160a10001007000501688005400370043
:1025ac000cc8bf00e24f500015003a001e00780026
:1025bc00e90f500012003a0030c0b3000ce8b7002d
:1025cc003ac8bf00614060003ae8b700501680007e
:1025dc004600de00614060000004a2006140600023
:1025ec000080fb00610060004600dd005116800099
:1025fc000160a10001007000501688003c003700fb
:10260c000cc8bf00e24f500013003a001e007800c7
:10261c00e90f50001000320030c0b3000ce8b700d6
:10262c003a68ef00501680004600de006140600002
:10263c000004a200614060000080fb0061006000ab
:10264c004600dd00511680000160a1000100700001
:10265c0050168800260037000cc8bf00e34f50000e
:10266c0012003a001e007800e80f50000f003a00ec
:10267c000c68ef00a0c0b30049040700a0c0b30071
:10268c0047040700a0c0b30045040700a0c0b30076
:10269c00430407003ac8bf000004e00014003200f5
:1026ac001000200050408800160037000cc8bf00f6
:1026bc00e34f50000e003a001e007800e80f500067
:1026cc000b003200f0c0b30035040700f0c0b300bb
:1026dc0033040700f0c0b30031040700f0c0b300ae
:1026ec002f0407000c68ef003a68ef000500370074
:1026fc001e00780000407800290407000100370014
:10270c00000000000080fa00000006000200fa0041
:10271c000040eb00004f780084020700004f780067
:10272c0010c4b3009e40780080cf500003003a00e4
:10273c0010002000404088000600370040c4b30061
:10274c009e40780080cf500002003a00100020001c
:10275c00504088000080fa00000006000200fa00d9
:10276c000040eb00004f7800f7030700004f7800a3
:10277c0010c4b3009e40780080cf500003003a0094
:10278c0010002000404088000600370040c4b30011
:10279c009e40780080cf500002003a0010002000cc
:1027ac00504088000080fa00000006000000fa008b
:1027bc00104080000000e9001040880010408000ac
:1027cc000000e00003003c0044080700dc22a900e4
:1027dc00de0707000080fa00000006000000fa0087
:1027ec00204080000000e90020408800204080004c
:1027fc000000e00003003c0093080700d642a9004b
:10280c00d20707000080fa00000006000200fa0060
:10281c00000f7800d5070700dc22a8001e00780006
:10282c000000e00002003400dc02a80001003700c8
:10283c00dc02a9001e00780000f0a7000000ea00ee
:10284c00104088000000eb00040807001b0807007c
:10285c000080fa00000006000200fa00000f780069
:10286c00c2070700d642a8001e0078000000e00056
:10287c0002003400d622a80001003700d622a9009d
:10288c001e00780000f0a7000000ea00204088003d
:10289c000000eb004c080700630807000080fa00fa
:1028ac00000006000000fa00800c2000d7ff070093
:1028bc0000032000e8ff0700c522a8000080fa00f2
:1028cc00000006000000fa0080f32f00cfff070085
:1028dc0000fd2f00e0ff0700c522a9000080fa00d0
:1028ec00000006000400fa00000f780011079800a1
:1028fc001e0190009e0078000000eb00ad01070067
:10290c000080fa00000006000400fa00000f7800b6
:10291c00110798001e0190009e0078001000200006
:10292c00a40107000080fa00000006000400fa0071
:10293c00000f7800110798001e0190009e0078008f
:10294c00200020009b0107000080fa000000060018
:10295c000400fa00000f7800110798001e01900087
:10296c009e00780030002000920107000080fa00e1
:10297c00000006000400fa00000f78001107980010
:10298c001e0190009e007800400020008901070085
:10299c000080fa00000006000400fa0020479800ae
:1029ac0010002000000f780080448000620060005e
:1029bc000000e00032003a0010892000ae40900088
:1029cc0001487800804480000000a1008044880009
:1029dc00804480000010a000804488008044800067
:1029ec000030a10080448800e0002000d044880022
:1029fc00401f2000c0448800804480000020a000bc
:102a0c0080448800c07c2100f04488000000eb006a
:102a1c0050458800c07c2100004588000000eb0078
:102a2c0060458800c07c2100104588000000eb0048
:102a3c0070458800c07c2100204588000000eb0018
:102a4c0080458800607d2100304588000000eb0047
:102a5c0090458800ca040700a7040700407c2100a9
:102a6c0076050700c07921007a050700c07921009e
:102a7c007e050700870407000000eb00000f7800bc
:102a8c001e0078000080fa00000006000200fa0028
:102a9c00004f7800108920001e4878000080fa0052
:102aac00000006000200fa0010002000000f780061
:102abc0080448000610060000000e0000a003a00e1
:102acc00804480000010a100804488001089200000
:102adc0080c0eb00014878008704070081040700e0
:102aec00e1448000010f78001e0078000080fa009d
:102afc00000006000200fa00004f7800790407007d
:102b0c001e80fb00c0448800620407000080fa00ad
:102b1c00000006000400fa00000f7800110798006e
:102b2c0080448000640060000000e0000700320078
:102b3c001e007800904488009e009000a1448800fc
:102b4c00804480000020a100804488000080fa00ae
:102b5c00000006000400fa00204798001000200036
:102b6c00000f780080448000610060000000e000ed
:102b7c0013003a00804480000000a00080448800cc
:102b8c000000eb00000f78002e4090000004e000e5
:102b9c000300320010002000d044880002003700ef
:102bac0020002000d0448800950407003e04070054
:102bbc000004a2000004e000010032000d00070038
:102bcc001e0078000080fa00000006000000fa00e9
:102bdc0010c0b300dfff07000080fa000000060001
:102bec000000fa000040eb00daff07000080fa005a
:102bfc00000006000000fa00030037000000eb00a4
:102c0c0047040700c9000700804480006100600091
:102c1c000000e000f9ff3a000080fa000000060016
:102c2c000000fa0073040700804480000000a1003b
:102c3c00804488000000eb00e0448800e0002000a5
:102c4c000080fa00000006000000fa0080448000ba
:102c5c000000a100804488000000eb00e0448800e4
:102c6c00e00020000080fa00000006000000fa00de
:102c7c0067040700100020000080fa000000060026
:102c8c000000fa0062040700200020000080fa0017
:102c9c00000006000000fa005d0407001000200090
:102cac000080fa00000006000000fa005c04070037
:102cbc000000eb000080fa00000006000000fa00a3
:102ccc00804480000030a0008044880010892000df
:102cdc00104078000080fb000000400000407800ad
:102cec000004a00067040700500020000080fa00d8
:102cfc00000006000000fa00804480000030a000b4
:102d0c00804488001089200010407800004040006a
:102d1c005c040700300020000080fa000000060070
:102d2c000000fa00804480000030a100804488003c
:102d3c004b040700400020000080fa000000060051
:102d4c000000fa0055040700500020000080fa0033
:102d5c00000006000000fa0055040700a000200047
:102d6c000080fa00000006000000fa005004070082
:102d7c00900020000080fa00000006000000fa001d
:102d8c00804480000030a100804488002000200096
:102d9c00e04488001145800070458000010001006e
:102dac000080e900e10f500002003e00b9ff07006f
:102dbc0001003700bcff07000080fa00000006008d
:102dcc000000fa001a0407000004e0000e003200b4
:102ddc00214580008045800001000100e20f500079
:102dec0003003200e30f50000300320004003700f0
:102dfc009eff070016003700a1ff070014003700e4
:102e0c00a9ff070012003700804480000030a100a9
:102e1c008044880090448000904078000000e800d6
:102e2c00904488000140780016040700a0448000fc
:102e3c000000e900a0448800a04480000000e000ed
:102e4c00020032003000200001003700600020003a
:102e5c000080fa00000006000000fa00881f7800cd
:102e6c009844800002040700004c78000800e80039
:102e7c0090448800a04480000000e900a044880031
:102e8c00a04480000000e0000300320003040700af
:102e9c00500020000c003700804480000020a0006f
:102eac0080448800f14480005045800001000100fe
:102ebc000080e900e10f500002003e00aaff07006d
:102ecc0001003700a3ff07004f0478000080fa00d0
:102edc00000006000000fa00804480000020a000e2
:102eec0080448800f14480005045800001000100be
:102efc00e20f50000a003900e30f500003003600c7
:102f0c00e40f5000030032000500370061ff07009a
:102f1c00040037007d03070030002000010037005b
:102f2c0061ff07000080fa00000006000000fa00b4
:102f3c007103070080448000680060000000e0001e
:102f4c0005003200ba0307000004e0000200320062
:102f5c00f0002000d0448800d04480008000400065
:102f6c00608b200000804000100078000000010001
:102f7c00d04488000080fa00000006000000fa002f
:102f8c001e0407000080fa00000006000200fa0090
:102f9c00000f7800100020000080fa0000000600ee
:102fac000200fa00000f7800500020000080fa00a8
:102fbc00000006000600fa00000f780011079800c8
:102fcc00220798001e0090000000e0000f00320065
:102fdc009e0078006780400080004000008920003f
:102fec00008040009e009000010878009e00780050
:102ffc006d8040008000400000892000008040006f
:10300c00ae009000010878000e0037009e0078009a
:10301c006780400080004000008920000080400054
:10302c00c17c2100010878009e0078006d80400072
:10303c008000400000892000008040008000eb00f0
:10304c00010878000080fa00000006000000fa0079
:10305c009580a9009560a9008000200000118800cf
:10306c002222ef0020022000401188004091200015
:10307c00d040880040912000c0408800d0912000b2
:10308c00b0408800d0912000a04088001c68ef0060
:10309c008087210007000700c038210014000700ba
:1030ac009560a80021e2a8002342a8000080fa0045
:1030bc00000006000200fa00000f78001e007800e5
:1030cc000000e00003003a0080872100f0408800f7
:1030dc00020037009e007800f14088000080fa0062
:1030ec00000006000000fa000080fa000000060054
:1030fc000200fa00000f78001e0078000000e000cb
:10310c0003003a00c038210000418800020037005b
:10311c009e007800014188000080fa000000060043
:10312c000000fa000080fa00000006000200fa001d
:10313c000040eb00004f780000000000b140800020
:10314c00a0408000808f5000fcff3200b040800017
:10315c00104f7800b04080000000e800b0408800bc
:10316c00b140800060922000808f500002003a0035
:10317c00d0912000b04088001e4078000080fa00fa
:10318c00000006000200fa00004f7800000000006a
:10319c001c0007000004a2000004e000fcff3a0041
:1031ac00c04080001e487800c04080000000e8004d
:1031bc00c0408800c1408000d0912000808f50001a
:1031cc0002003a0040912000c04088009580a80081
:1031dc000080fa00000006000000fa00b1408000f8
:1031ec00a04080000080680000f0a7000000ea000a
:1031fc000000ea004f00de00004078000080fa007a
:10320c00000006000400fa00d1408000110798006d
:10321c00c14080001e009000808f500006003100dd
:10322c009e009000c0408000008050000000e9002b
:10323c00000f7800050037009e009000c040800011
:10324c000080500068004000000f78001e007800dd
:10325c0000f0a7000000ea000000ea004f00de00ca
:10326c00004078000080fa00000006000000fa0020
:10327c00c1408000d0408000808f500009003a008f
:10328c0011118000001020000080600000f0a700e9
:10329c000000ea000000ea004f00de000040780069
:1032ac00010037000040eb000080fa00000006002f
:1032bc000400fa00a140800011079800b040800083
:1032cc009e009000808f5000060031009e00900000
:1032dc00b04080000080500069004000000f780072
:1032ec00030037009e009000b0408000008f50001b
:1032fc00f00f20009e007800808f500002003600f6
:10330c0000c0eb00020037001e007800004078007f
:10331c000080fa00000006000400fa00d140800092
:10332c0011079800c14080001e009000808f500053
:10333c00060031009e009000c040800000805000cc
:10334c000000e900000f7800050037009e00900097
:10335c00c04080000080500068004000000f7800e2
:10336c00f00f20009e007800808f50000200360085
:10337c0000c0eb00020037001e007800004078000f
:10338c000080fa00000006000800fa0020079800f0
:10339c0031079800c6ff07000080fb00000f780083
:1033ac003e0090009e0f500002003100be009000c5
:1033bc00010f78000000eb0010079800090037009f
:1033cc005aff0700ae009000804878002e00900055
:1033dc000000e800200798001e0090000000e800a4
:1033ec00100798001e0090009e0f5000f4ff39004b
:1033fc001e0078000080fa00000006000800fa00a9
:10340c002007980031079800c3ff07000080fb00dd
:10341c00000f78003e0090009e0f5000020031001b
:10342c00be009000010f78000000eb001007980020
:10343c00090037002e00900010407800ae0090007c
:10344c008100e800210798004eff07001e00900045
:10345c000000e800100798001e0090009e0f50001e
:10346c00f4ff39001e0078000080fa00000006000e
:10347c000400fa000000eb00000f78008cff07003e
:10348c0020479800a4ff0700304798002e4090007a
:10349c000080fb000000e00003003200e90f500048
:1034ac0003003200040037001e20a0000400370087
:1034bc001e00a000020037001e10a000000000003b
:1034cc003e4090000080fb000000e0000300320052
:1034dc00e90f500003003200040037001e30a0003a
:1034ec00020037001e40a000000000001e00780003
:1034fc000080fa00000006000400fa001007980093
:10350c00b14080001e009000008f40000200370088
:10351c009e007800698f5000609220009e00780019
:10352c00808f5000faff3e001e007800104078009b
:10353c000080fa00000006000000fa005cff0700a3
:10354c000080fb000000e9004f00de000040780026
:10355c000080fa00000006000000fa006eff070071
:10356c000080fb000000e9004f00de000040780006
:10357c000080fa00000006000000fa001011800024
:10358c000080fa00000006000000fa0062ff07004d
:10359c000004e00010003200d1408000c0408000e8
:1035ac00808f500006003600d040800080007800ec
:1035bc00c0408000008050000000e9000700370088
:1035cc00d040800080007800c04080000080500017
:1035dc0068004000010037000000eb000080fa009a
:1035ec00000006000000fa0031ff07000004e000b4
:1035fc0010003200b1408000a0408000808f50004d
:10360c0006003600b040800080007800a0408000aa
:10361c00008050000000e90007003700b040800037
:10362c0080007800a04080000080500068004000be
:10363c00010037000000eb000080fa0000000600db
:10364c000000fa0021e2a8002342a8000080fa0042
:10365c00000006000000fa0021e2a9002342a900a4
:10366c000080fa00000006000000fa0097e0a900b4
:10367c0097c0a90080002000801188003222ef0042
:10368c00001a2000c0118800609220004041880080
:10369c006092200030418800f09220002041880088
:1036ac00f0922000104188002a68ef0060b82100d9
:1036bc0007000700403b21001400070097c0a8003a
:1036cc0031e2a8003342a8000080fa000000060096
:1036dc000200fa00000f78001e0078000000e000e5
:1036ec0003003a0060b821006041880002003700f6
:1036fc009e007800614188000080fa0000000600fe
:10370c000000fa000080fa00000006000200fa0037
:10371c00000f78001e0078000000e00003003a0063
:10372c00403b210070418800020037009e00780069
:10373c00714188000080fa00000006000000fa00c9
:10374c000080fa00000006000200fa000040eb00c6
:10375c00004f7800000000002141800010418000e3
:10376c00808f5000fcff320020418000104f780009
:10377c00204180000000e8002041880021418000a9
:10378c0080932000808f500002003a00f0922000bd
:10379c00204188001e4078000080fa0000000600de
:1037ac000200fa00004f7800000000001c00070027
:1037bc000004a2000004e000fcff3a00304180004d
:1037cc001e487800304180000000e800304188003d
:1037dc0031418000f0922000808f500002003a00ae
:1037ec00609220003041880097e0a8000080fa0029
:1037fc00000006000000fa0021418000104180000a
:10380c000080680000f0a7000000ea000000ea0059
:10381c004f00de00004078000080fa000000060037
:10382c000400fa00414180001107980031418000ea
:10383c001e009000808f5000060031009e0090000a
:10384c0030418000008050000000e900000f78003b
:10385c00050037009e009000304180000080500031
:10386c0068004000000f78001e00780000f0a700f0
:10387c000000ea000000ea004f00de000040780083
:10388c000080fa00000006000000fa0031418000c0
:10389c0040418000808f500009003a009111800057
:1038ac00001020000080600000f0a7000000ea007b
:1038bc000000ea004f00de000040780001003700f5
:1038cc000040eb000080fa00000006000400fa0043
:1038dc001141800011079800204180009e0090004b
:1038ec00808f5000060031009e0090002041800027
:1038fc000080500069004000000f78000300370082
:10390c009e00900020418000008f5000f00f20009e
:10391c009e007800808f50000200360000c0eb0043
:10392c00020037001e007800004078000080fa008a
:10393c00000006000400fa004141800011079800c5
:10394c00314180001e009000808f50000600310035
:10395c009e00900030418000008050000000e90083
:10396c00000f7800050037009e0090003041800069
:10397c000080500068004000000f7800f00f20001d
:10398c009e007800808f50000200360000c0eb00d3
:10399c00020037001e007800004078000080fa001a
:1039ac00000006000800fa00200798003107980074
:1039bc00c6ff07000080fb00000f78003e0090005f
:1039cc009e0f500002003100be009000010f7800e5
:1039dc000000eb0010079800090037005aff0700a1
:1039ec00ae009000804878002e0090000000e800a7
:1039fc00200798001e0090000000e80010079800b7
:103a0c001e0090009e0f5000f4ff39001e0078003d
:103a1c000080fa00000006000800fa002007980059
:103a2c0031079800c3ff07000080fb00000f7800ef
:103a3c003e0090009e0f500002003100be0090002e
:103a4c00010f78000000eb00100798000900370008
:103a5c002e00900010407800ae0090008100e8002d
:103a6c00210798004eff07001e0090000000e800a0
:103a7c00100798001e0090009e0f5000f4ff3900b4
:103a8c001e0078000080fa00000006000400fa0016
:103a9c000000eb00000f78008cff07002047980017
:103aac00a4ff0700304798002e4090000080fb00d8
:103abc000000e00003003200e90f50000300320068
:103acc00040037001e20a000040037001e00a000d8
:103adc00020037001e10a000000000003e409000c5
:103aec000080fb000000e00003003200e90f5000f2
:103afc0003003200040037001e30a0000200370023
:103b0c001e40a000000000001e0078000080fa009b
:103b1c00000006000400fa00100798002141800004
:103b2c001e009000008f4000020037009e007800bd
:103b3c00698f5000809320009e007800808f500089
:103b4c00faff3e001e007800104078000080fa005a
:103b5c00000006000000fa005cff07000080fb007c
:103b6c000000e9004f00de00004078000080fa0001
:103b7c00000006000000fa006eff07000080fb004a
:103b8c000000e9004f00de00004078000080fa00e1
:103b9c00000006000000fa00901180000080fa007e
:103bac00000006000000fa0062ff07000004e000bd
:103bbc00100032004141800030418000808f500065
:103bcc0006003600404180008000780030418000c3
:103bdc00008050000000e9000700370040418000e1
:103bec008000780030418000008050006800400068
:103bfc00010037000000eb000080fa000000060016
:103c0c000000fa0031ff07000004e0001000320051
:103c1c002141800010418000808f5000060036004a
:103c2c00204180008000780010418000008050000e
:103c3c000000e90007003700204180008000780078
:103c4c0010418000008050006800400001003700e7
:103c5c000000eb000080fa00000006000000fa00f3
:103c6c0031e2a8003342a8000080fa0000000600f0
:103c7c000000fa0031e2a9003342a9000080fa00ea
:103c8c00000006000000fa0007e2a9000080fa001c
:103c9c00000006000000fa009620a8009600a8007c
:103cac000080fa00000006000000fa00b00480005a
:103cbc00620060000000e00004003a00b0048000e4
:103ccc00610060000000e0000200320010002000e3
:103cdc00010037000000eb00004078000080fa0083
:103cec00000006000000fa009620a9009600a9002a
:103cfc000080fa00000006000000fa008620a900ef
:103d0c008600a9000080fa00000006000000fa00fe
:103d1c008620a8008600a8000080fa00000006009b
:103d2c000200fa00000f780030048000620060008e
:103d3c000000e00010003a003004800061006000d8
:103d4c000000e0000c003a003004800062006000cb
:103d5c000000e00008003a003004800061006000c0
:103d6c000000e00004003a00006420000100200084
:103d7c0066050700f4ff37000080fa00000006001b
:103d8c000000fa0031108000000028000080600064
:103d9c000000e00007003a000822ef0000002800b5
:103dac0030108800d00920002010880010c0b3000b
:103dbc00010037000040eb000080fa000000060014
:103dcc000000fa0031108000000028000080600024
:103ddc000000e00004003a0006c2a80007e2a800b8
:103dec0010c0b300010037000040eb000080fa0067
:103dfc00000006000000fa000080fa000000060037
:103e0c000000fa000602a8000080fa00000006007c
:103e1c000000fa000622a8000080fa00000006004c
:103e2c000000fa000642a8000080fa00000006001c
:103e3c000000fa00401080004f00de0000407800c7
:103e4c000080fb0000f0a7000000ea000000ea0080
:103e5c004f00de00004078000080fa0000000600f1
:103e6c000000fa000662a8000080fa0000000600bc
:103e7c000000fa0000108000004078000080fa007a
:103e8c00000006000200fa00004f78001e80fb00c4
:103e9c00101088000080fa00000006000000fa00f4
:103eac0006a2a9000682a8000080fa000000060005
:103ebc000000fa0006a2a8000682a8000080fa0002
:103ecc00000006000000fa000782a8000080fa003b
:103edc00000006000000fa00401080006200600044
:103eec000000e00004003a00401080006100600017
:103efc000000e0000200320010002000010037003a
:103f0c000000eb00004078000080fa000000060082
:103f1c000000fa00401080004300de0061406000a9
:103f2c000080fb0000f0a7000000ea000000ea009f
:103f3c004f00de00004078000080fa000000060010
:103f4c000000fa0041108000000220000080600098
:103f5c0000f0a7000000ea000000e9004f00de00be
:103f6c00004078000080fa00000006000000fa0013
:103f7c00401080004400de00614060000080fb00c7
:103f8c0000f0a7000000ea000000ea004f00de008d
:103f9c00004078000080fa00000006000000fa00e3
:103fac00401080004500de00614060000080fb0096
:103fbc0000f0a7000000ea000000ea004f00de005d
:103fcc00004078000080fa00000006000000fa00b3
:103fdc00401080004200de00614060000080fb0069
:103fec0000f0a7000000ea000000ea004f00de002d
:103ffc00004078000080fa00000006000000fa0083
:10400c000942a9000080fa00000006000000fa0036
:10401c000080fa00000006000000fa000080fa00a0
:10402c00000006000000fa000080fa000000060004
:10403c000000fa000080fa00000006000200fa00fe
:10404c00000f78009e007800814188000080fa0003
:10405c00000006000200fa00000f78009e007800b5
:10406c00914188000080fa00000006000200fa006e
:10407c00000f78009e007800a14188000080fa00b3
:10408c00000006000200fa00000f7800110020006a
:10409c001e0078009ffa07008000eb000000eb0088
:1040ac0010fa0700400020000080fa000000060013
:1040bc000400fa00004f780011479800224798003e
:1040cc00000000001e40780033fa07000000e000fa
:1040dc00fcff32000e80e800800078008004220093
:1040ec0000fa07000e00e8001100200089fa070012
:1040fc008000eb00009422000cfa0700b8fa0700cd
:10410c000000000067fa0700e10f5000fdff3200cd
:10411c000080fa00000006000600fa00004f78004c
:10412c001107980022079800000000001e4078003c
:10413c0019fa07000000e000fcff3200ae0090000e
:10414c001e00900073fa07008000eb000094220020
:10415c00f6f90700a2fa07000000000051fa070068
:10416c00e10f5000fdff32000080fa000000060055
:10417c000200fa00000f7800110020001e007800e9
:10418c0064fa07008000eb000000eb00d5f9070093
:10419c00200020000080fa00000006000800fa0051
:1041ac006047980071479800a0c2b3004047980040
:1041bc0020002000000f78001900370000000000dc
:1041cc006e409000f4f907000000e000fcff3200a4
:1041dc006400470080007800e00b2200c1f9070062
:1041ec0067004700110020004afa07008000eb002e
:1041fc0000942200cdf9070079fa070029fa07008c
:10420c00100798001e009000e10f5000fbff3200d9
:10421c001e0090000000e000050032001e0fe900b7
:10422c001e0078000000e000e4ff3a0001003700b7
:10423c00000000004e4090000080fa0000000600d4
:10424c000200fa00000f7800210020001e00780008
:10425c0030fa07008000eb000000eb00a1f907002a
:10426c00200020000080fa00000006000400fa0084
:10427c002047980031479800000000002e40900025
:10428c00c5f907000000e000fcff32008e0078004a
:10429c006012220093f90700630047001100200010
:1042ac001cfa07008000eb00009422009ff9070025
:1042bc004bfa070000000000faf90700e10f50006c
:1042cc00fdff32001e007800c800dd004800de0053
:1042dc00008070000080fa00000006000200fa0066
:1042ec00000f7800210020001e00780009fa07005a
:1042fc008000eb000000eb007af907004000200082
:10430c000080fa00000006000400fa00004f78005c
:10431c001147980012079800000000001e4078001a
:10432c009df907000000e000fcff32000e80e80061
:10433c0080007800401722006af907000e00e800a0
:10434c0011002000f3f907008000eb00009422001c
:10435c0076f9070022fa070000000000d1f90700e7
:10436c00e10f5000fdff32000080fa000000060053
:10437c000200fa00000f78001e0078009000780010
:10438c001e00780010009000e2f907008000eb009e
:10439c000000eb0053f90700200020000080fa0019
:1043ac00000006000a00fa004047980051479800a8
:1043bc0032079800430798003e00900010079800c1
:1043cc00ce009000010f7800000000004e409000dd
:1043dc0071f907000000e000fcff32008e0078004d
:1043ec00e01b22003ff90700650047001100200088
:1043fc00c8f907008000eb00009422004bf907007d
:10440c00f7f9070000000000a6f90700e10f5000c3
:10441c00fdff32000080fa00000006000600fa00e2
:10442c00004f780011079800220798000000000048
:10443c001e40780058f907000000e000fcff320035
:10444c00ae0090001e009000b2f90700dff90700e3
:10445c000000000093f90700e10f5000fdff32004f
:08446c000080fa0000000600c8
:020000040000fa
:10447400b608000020000000020000002a166400b4
:1044840016801600e61632001796160070173c00c8
:104494001646160050165a0016a61600b016ba0094
:1044a40016161600c416000090080000260000002e
:1044b40000000000380900001000000000000000a7
:1044c4004008000002000000020000000c90000000
:1044d400d608000020000000000000004208000090
:1044e4000200000002000000ffff00003c08000082
:1044f4000400000000000000480900000200000061
:104504000000000044080000020000000000000059
:10451400140900001200000000000000140800004c
:104524000e0000000000000030080000060000003b
:10453400000000004a090000020000000000000022
:1045440046080000020000000000000048080000c7
:1045540002000000000000004a0800000200000001
:10456400000000004c0900000200000000000000f0
:104574004c080000020000000000000026090000b2
:104584001200000000000000220800000e000000dd
:10459400000000004e0900000200000000000000be
:1045a40000080000140000000000000036080000ad
:1045b4000600000002000000c800c800000100005e
:1045c4004e0800004200000002000000520854009f
:1045d400085408000100030000000000000000006f
:1045e400000000000000de000c00000000000000dd
:1045f40000a80800040800000000000000000000fb
:1046040000000000000000000000000000000000a6
:104614000000000000000000000000000000000096
:1046240000000000f60800001e0000000200000068
:10463400286e69006c29000025006800076c0900d9
:104644004c836a009074a0007ac0000080688800df
:1046540000846c0082008100500900000200000008
:1046640000000000520900000200000002000000e7
:0846740001000000000000003d
:020000040000fa
:10467c000000fa000021ef0090862100100888004d
:10468c000003280020088800204280000000e00081
:10469c0002003a0080102100240007008460a90069
:1046ac009460a800809420008040eb0001487800c2
:1046bc000080fa00000006000200fa00000f7800eb
:1046cc009e00780011088800809420008040eb0048
:1046dc00014878000080fa00000006000000fa0093
:1046ec00100880000080fa00000006000200fa00aa
:1046fc00000f78009e00780001088800809420004c
:10470c008040eb00014878000080fa0000000600b1
:10471c000000fa00000880000080fa00000006008b
:10472c000000fa000080fa00000006000200fa0007
:10473c00000f78009460a9009e0078002142880048
:10474c009460a8000080fa00000006000000fa0047
:10475c00809420008040eb00014878009460a80011
:10476c0005e1a8000080fa00000006000000fa0035
:10477c0005e1a9009460a9000080fa000000060081
:10478c000200fa0080942000104f78001e40780040
:10479c000004e00003003200809420008040eb0015
:1047ac00014878001e4078000080fa0000000600e6
:1047bc000000fa0090942000104078000080fb006c
:1047cc000080fa00000006000000fa00909420001f
:1047dc008040eb00014878000080fa0000000600e1
:1047ec000000fa000a21ef00800c200070088800fd
:1047fc000003280090088800304280000000e00090
:10480c0002003a00c03d2100240007008500a900e9
:10481c009500a800a09420008040eb00014878008f
:10482c000080fa00000006000200fa00000f780079
:10483c009e00780071088800a09420008040eb0056
:10484c00014878000080fa00000006000000fa0021
:10485c00700880000080fa00000006000200fa00d8
:10486c00000f78009e00780051088800a09420006a
:10487c008040eb00014878000080fa000000060040
:10488c000000fa00500880000080fa0000000600ca
:10489c000000fa000080fa00000006000200fa0096
:1048ac00000f78009500a9009e0078003142880026
:1048bc009500a8000080fa00000006000000fa0035
:1048cc00a09420008040eb00014878009500a800df
:1048dc0013e1a8000080fa00000006000000fa00b6
:1048ec0013e1a9009500a9000080fa000000060061
:1048fc000200fa00a0942000104f78001e407800af
:10490c000004e00003003200a09420008040eb0083
:10491c00014878001e4078000080fa000000060074
:10492c000000fa00b0942000104078000080fb00da
:10493c000080fa00000006000000fa00b09420008d
:10494c008040eb00014878000080fa00000006006f
:10495c000000fa000621ef000c21ef0000032800f4
:10496c0080088800604280000000e00002003a00ed
:10497c00403f21002400070084e0a90094e0a80037
:10498c00c09420008040eb00014878000080fa00c1
:10499c00000006000200fa00000f78009e0078006c
:1049ac0061088800c09420008040eb00014878002a
:1049bc000080fa00000006000000fa006008800089
:1049cc000080fa00000006000200fa00000f7800d8
:1049dc009e00780031088800c09420008040eb00d5
:1049ec00014878000080fa00000006000000fa0080
:1049fc00300880000080fa00000006000000fa0079
:104a0c000080fa00000006000200fa00000f780097
:104a1c0094e0a9009e0078006142880094e0a80010
:104a2c000080fa00000006000000fa00c09420008c
:104a3c008040eb000148780094e0a80011e1a80048
:104a4c000080fa00000006000000fa0011e1a90045
:104a5c0094e0a9000080fa00000006000200fa00b1
:104a6c00c0942000104f78001e4078000004e00035
:104a7c0003003200c09420008040eb000148780015
:104a8c001e4078000080fa00000006000000fa00ca
:104a9c00d0942000104078000080fb000080fa00c9
:104aac00000006000000fa00d09420008040eb00cb
:104abc00014878000080fa00000006000000fa00af
:104acc009221ef009421ef00e0002000b00c880050
:104adc00b00c800000407800674060000080fb0054
:104aec00404288000080fa00000006000000fa0036
:104afc000080fa00000006000000fa00310480007b
:104b0c0000402000008060000000e0000200320045
:104b1c00f6ff07008740a9000080fa00000006009d
:104b2c000000fa00404280000040780067406000be
:104b3c000080fb0067006000b20c800081ff2f003a
:104b4c008100610001007000b00c88000080fa0048
:104b5c00000006000000fa00b10c800080ff2f005e
:104b6c0000806000b00c88000080fa000000060095
:104b7c000200fa00000f78009e007800910c88006b
:104b8c000080fa00000006000200fa00000f780016
:104b9c009e007800a10c88000080fa00000006003e
:104bac000000fa00300480004a00de006140600022
:104bbc000080fb0000f0a7000000ea000000ea0003
:104bcc004f00de00004078000080fa000000060074
:104bdc000400fa00100798001e0090000000e0008e
:104bec000a003a00b00c80004400de006140600016
:104bfc000080fb0000f0a7000000ea000000ea00c3
:104c0c004f00de00004f780001003700000000006c
:104c1c001e4078000080fa00000006000000fa0038
:104c2c001421ef001a21ef0000002800f008880082
:104c3c00e09420008040eb00014878000080fa00ee
:104c4c00000006000000fa00310480000080200003
:104c5c00008060000000e00009003200f0942000a9
:104c6c00104078008040e800f09420000148780063
:104c7c00e094200011c0b300014878008760a900bf
:104c8c000080fa00000006000200fa00000f780015
:104c9c009e007800d1088800e09420008040eb0052
:104cac00014878000080fa00000006000000fa00bd
:104cbc00d00880000080fa00000006000200fa0014
:104ccc00000f78009e007800a1088800e094200076
:104cdc008040eb00014878000080fa0000000600dc
:104cec000000fa00a00880000080fa000000060016
:104cfc000000fa00e09420008040eb0001487800ae
:104d0c001fe1a8000080fa00000006000000fa0075
:104d1c001fe1a9000080fa00000006000200fa0062
:104d2c00e0942000104f78001e4078000004e00052
:104d3c0003003200e09420008040eb000148780032
:104d4c001e4078000080fa00000006000000fa0007
:104d5c00f0942000104078000080fb000080fa00e6
:104d6c00000006000000fa00f09420008040eb00e8
:104d7c00014878000080fa00000006000000fa00ec
:104d8c008021ef008221ef0060002000200c8800c1
:104d9c00200c800000407800674060000080fb0021
:104dac00504288000080fa00000006000000fa0063
:104dbc000080fa00000006000000fa0020048000c9
:104dcc00640060000000e00002003200f7ff070002
:104ddc008440a9000080fa00000006000000fa00e0
:104dec005042800000407800674060000080fb006b
:104dfc0067006000220c800081ff2f0081006100a1
:104e0c0001007000200c88000080fa0000000600f1
:104e1c000000fa00210c800080ff2f000080600051
:104e2c00200c88000080fa00000006000200fa0046
:104e3c00000f78009e007800010c88000080fa00ba
:104e4c00000006000200fa00000f78009e007800b7
:104e5c00110c88000080fa00000006000000fa0027
:104e6c00200480004200de00614060000080fb00f6
:104e7c0000f0a7000000ea000000ea004f00de008e
:104e8c00004078000080fa00000006000400fa00e0
:104e9c00100798001e0090000000e0000a003a0085
:104eac00200c80004400de00614060000080fb00ac
:104ebc0000f0a7000000ea000000ea004f00de004e
:104ecc00004f780001003700000000001e40780001
:104edc000080fa00000006000600fa00b00129006c
:104eec00801f7800d5ef07008f87e90000000000d5
:104efc0060838400000001000004a2000004e000b4
:104f0c00fbff3a000000eb00000f780002012000cc
:104f1c008000eb0080932000d1ef07000000eb0035
:104f2c001007980012003700308384000000010045
:104f3c00829320009e009000810041008048780000
:104f4c00819320001e0090000080400010407800eb
:104f5c00ea4f500003003a009e009000010f7800c9
:104f6c00060037001e0090000000e80010079800b3
:104f7c001e009000ef0f5000ebff3600900529004b
:104f8c00801f7800adef07008f87e9000000eb0071
:104f9c002007980009003700819320002e00900014
:104fac0000804000104078000080fb0010f00700eb
:104fbc002e0090000000e800200798002e009000c2
:104fcc009e0f5000f4ff35000080fa000000060030
:104fdc000000fa0021068000f08f2f000080600096
:104fec000080a0002006880091058000f0ff2800ba
:104ffc000080600000c0a000900588009105800032
:10500c00f08f2f00008060000080a00090058800c9
:10501c0021068000f0f82f00008060000040a00006
:10502c00200688005105800080ff2f000080600062
:10503c000000a0005005880041058000f0ff28000a
:10504c000080600000c0a000400588006105800061
:10505c00f0f82f00008060000040a0006005880080
:10506c006105800080ff2f00008060000000a00020
:10507c00600588004105800080ff2f0000806000e3
:10508c000000a0004005880031058000f0ff2800da
:10509c000080600000c0a000300588002105800061
:1050ac00f0ff28000080600000c0a00020058800f0
:1050bc000080fa00000006000200fa00000f7800e1
:1050cc000300370000e82300010020008f000700d8
:1050dc001e00780000f0a7000000ea000000ea00c3
:1050ec004f00de00004078001e0fe9000004e000d5
:1050fc00f4ff3a000080fa00000006000200fa00fb
:10510c00000f78000500370000202000010020006f
:10511c007e00070001fe2f001e8f40001e0078004d
:10512c00ff0f5000f8ff3e00030037000001200085
:10513c0001002000750007001e00780000f0a70099
:10514c000000ea000000ea004f00de00004078009a
:10515c001e0fe9000004e000f4ff3a000080fa00a2
:10516c00000006000000fa00c422ef00ca22ef0083
:10517c00d022ef00d622ef00dc22ef00e222ef007b
:10518c00e822ef00f0082c0000168800f0f32f0046
:10519c0030168800e00127006016880000ff2f0001
:1051ac0090168800c03f2000c0168800700d2300a8
:1051bc00f0168800f03c2f00201788006820ef00c4
:1051cc006a20ef00c026ef00c626ef00cc26ef00c9
:1051dc00d226ef00d826ef00de26ef00e426ef0003
:1051ec00300c2000601988000080fa0000000600d6
:1051fc000000fa0000002300203a88004827ef0046
:10520c007027ef007227ef007427ef0012002000c8
:10521c0080072000a1092000337420008049780009
:10522c0081497800824978000001eb00600420007d
:10523c007105200023742000804978008149780092
:10524c00824978000080fa00000006000200fa0093
:10525c00000f7800100020000080fa00000006000b
:10526c000200fa00000f7800500020000080fa00c5
:10527c00000006000200fa00000f78003000200049
:10528c000080fa00000006000200fa00000f78000f
:10529c00200020000080fa00000006000000fa0048
:1052ac00b0ff07004aff0700d1ff0700eef8070028
:1052bc0002fe070065f7070049fd0700affe070077
:1052cc0056fe0700a2fd0700e9fc07000080fa006b
:1052dc00000006000200fa00000f78009e00780023
:1052ec00114288000000fe000080fa000000060059
:1052fc000000fa00608d200080077800e08e20000e
:0c530c00000188000080fa00000006008c
:020000040000fa
:10531800f03fb1000180b10006003500ee0309003e
:1053280000000000403fb1000180b100fbff3d00dc
:105338001000b000203fb0000200350000800900d6
:08534800000000000000060057
:020000040000fa
:10535000809fbe00ec80570031007800e04188005b
:10536000110078003ee8b7004f00be0000000600c4
:020000040000fa
:020000040002f8
:04aff8009ff90000bd
:020000040000fa
:020000040002f8
:04affc007f3e000094
:00000001FF
